:10C000005542200135D0085A8245020231400004D1
:10C010003F4000000F9308249242020220012F8328
:10C020009F4FA0C00002F8233F4002000F93072457
:10C030009242020220011F83CF430002F923B24043
:10C04000805A2001C2432100F2D041002200F2E0D8
:10C0500041002100824300021F4200023F9060EA3B
:10C06000072C925300021F4200023F9060EAF92B16
:10C07000F2E041002100824300021F4200023F9093
:10C080003075E52F925300021F4200023F90307539
:10C09000F92BDD3F32D0F000FD3F30409EC0001351
:10FFE0009AC09AC09AC09AC09AC09AC09AC09AC041
:10FFF0009AC09AC09AC09AC09AC09AC09AC000C0CB
:040000030000C00039
:00000001FF
