:10C000005542200135D0085A8245000231400004D3
:10C010003F4000000F9308249242000220012F832A
:10C020009F4F7AC00002F8233F4000000F9307247F
:10C030009242000220011F83CF430002F923B24045
:10C04000805A2001C2432100F2D22700F2D04100E1
:10C050002200F2D221005F4220003FF20420F2D001
:10C0600041002100F83FF2F0BEFF2100F43F32D042
:0AC07000F000FD3F304078C00013DF
:10FFE00074C074C074C074C074C074C074C074C071
:10FFF00074C074C074C074C074C074C074C000C0D5
:040000030000C00039
:00000001FF
